:020000040000FA
:10000000200400200D03000015030000170300006A
:10001000190300001B0300001D0300000000000086
:100020000000000000000000000000001F030000AE
:10003000210300000000000023030000250300004E
:1000400015070000990700001D080000A108000026
:1000500025090000310300003303000035030000D0
:1000600037030000390300003B0300003D0300009C
:100070003F0300004103000043030000450300006C
:1000800047030000490300004B030000192B000048
:100090004F0300005103000053030000550300000C
:1000A00057030000590300005B0300005D030000DC
:1000B0005F03000061030000A90900006503000060
:1000C00067030000690300006B0300006D0300007C
:1000D0006F0300007103000073030000750300004C
:1000E0007703000079030000000000007B0300009C
:1000F0007D0300007F0300008103000083030000F4
:100100008503000087030000890300008B030000C3
:1001100000000000000000008D0300008F030000BD
:100120009103000093030000950300009703000073
:10013000990300009B0300009D0300009F03000043
:1001400000000000000000000000000000000000AF
:10015000A1030000A3030000A5030000A703000003
:10016000000000000000000000000000000000008F
:10017000000000000000000000000000000000007F
:10018000000000000000000000000000000000006F
:10019000000000000000000000000000000000005F
:1001A000000000000000000000000000000000004F
:1001B000A9030000AB030000492B0000AF030000BF
:1001C0007D2B0000B3030000B5030000B70300005F
:1001D000B9030000BB030000BD030000BF03000023
:1001E000C1030000C3030000C503000000000000BD
:1001F00000000000C7030000C9030000CB0300009B
:10020000CD030000CF03000000000000000000004C
:10021000D1030000D3030000D5030000D703000082
:10022000D9030000DB030000DD030000DF03000052
:10023000E1030000E3030000E5030000E703000022
:10024000E9030000EB030000ED030000EF030000F2
:10025000F1030000F3030000F5030000F7030000C2
:10026000F9030000FB030000FD03000000F002F8AA
:1002700000F03CF80AA090E8000C82448344AAF104
:100280000107DA4501D100F031F8AFF2090EBAE802
:100290000F0013F0010F18BFFB1A43F001031847BA
:1002A00080320000A0320000103A24BF78C878C124
:1002B000FAD8520724BF30C830C144BF04680C606C
:1002C000704700000023002400250026103A28BFB4
:1002D00078C1FBD8520728BF30C148BF0B607047B8
:1002E0001FB503F00FF91FBD10B510BD00F09BF84E
:1002F0001146FFF7F5FF02F0A5FE00F0B9F803B4D0
:10030000FFF7F2FF03BC00F0C1F800003F48804750
:100310003F480047FEE7FEE7FEE7FEE7FEE7FEE7B1
:10032000FEE7FEE7FEE7FEE7FEE7FEE7FEE7FEE7A5
:10033000FEE7FEE7FEE7FEE7FEE7FEE7FEE7FEE795
:10034000FEE7FEE7FEE7FEE7FEE7FEE7FEE7FEE785
:10035000FEE7FEE7FEE7FEE7FEE7FEE7FEE7FEE775
:10036000FEE7FEE7FEE7FEE7FEE7FEE7FEE7FEE765
:10037000FEE7FEE7FEE7FEE7FEE7FEE7FEE7FEE755
:10038000FEE7FEE7FEE7FEE7FEE7FEE7FEE7FEE745
:10039000FEE7FEE7FEE7FEE7FEE7FEE7FEE7FEE735
:1003A000FEE7FEE7FEE7FEE7FEE7FEE7FEE7FEE725
:1003B000FEE7FEE7FEE7FEE7FEE7FEE7FEE7FEE715
:1003C000FEE7FEE7FEE7FEE7FEE7FEE7FEE7FEE705
:1003D000FEE7FEE7FEE7FEE7FEE7FEE7FEE7FEE7F5
:1003E000FEE7FEE7FEE7FEE7FEE7FEE7FEE7FEE7E5
:1003F000FEE7FEE7FEE7FEE7FEE7FEE7FEE70000BA
:1004000004480549034A054B704700000D2A0000C7
:100410006D020000200200202004002020020020A5
:10042000704770477047754600F02CF8AE460500DF
:100430006946534620F00700854618B020B5FFF7FF
:10044000DFFFBDE820404FF000064FF000074FF0FF
:1004500000084FF0000BAC46ACE8C009ACE8C0099E
:10046000ACE8C009ACE8C00921F007018D4670472F
:1004700010B50446AFF300802046BDE81040FFF7FA
:100480003EBF000000487047B80000200149182016
:10049000ABBEFEE7260002007047000080B582B0C8
:1004A0008DF80700002000908DF806008DF80500FB
:1004B0009DF8070000F014F900988DF80500FFE79B
:1004C0009DF8050003282CDCFFE79DF80500C00718
:1004D00080B9FFE79DF8050000EB400140F25000B5
:1004E000C2F2000000EBC100012101F085FB8DF894
:1004F00006000FE09DF8050000EB400140F25000BF
:10050000C2F2000000EBC100002101F075FB8DF884
:100510000600FFE7FFE79DF8050001308DF80500B4
:10052000CEE79DF8060002B080BD000080B582B025
:1005300001908DF8031000208DF802009DF8030053
:1005400040008DF80100019820B9FFE701208DF8E7
:10055000020016E0FFE79DF801009DF8031001314D
:10056000B0EB410F0CDAFFE701989DF8011001EBA9
:10057000410100EBC10001F00DFB8DF80200FFE727
:10058000FFE79DF8020002B080BD000080B582B098
:10059000019000208DF803008DF80200019820B929
:1005A000FFE701208DF802002FE000208DF8030006
:1005B000FFE79DF80300032824DCFFE701989DF87E
:1005C000031001EB410100EBC10000F02FFA8DF8A0
:1005D00002009DF8020020B1FFE701208DF8020023
:1005E00010E00198807820B9FFE701208DF8020023
:1005F00000E0FFE7FFE7FFE79DF8030001308DF81B
:100600000300D6E702F028F9FFE79DF8020002B0E8
:1006100080BD000080B582B08DF8070000208DF805
:1006200006009DF8070058B9FFE740F25000C2F2FB
:1006300000000021FFF77AFF322000F051F80AE0B5
:1006400040F25000C2F200000121FFF76FFF32209C
:1006500000F046F8FFE79DF8060002B080BD0000FC
:1006600080B582B001908DF8031000208DF8020053
:100670008DF80100019820B9FFE701208DF80200F4
:1006800029E000208DF80100FFE79DF801009DF8AA
:1006900003100131B0EB410F1CDAFFE701989DF820
:1006A000011001EB410100EBC100002101F0A4FAAF
:1006B0008DF802009DF8020020B1FFE701208DF8BF
:1006C000020000E0FFE7FFE79DF8010001308DF830
:1006D0000100DAE7FFE79DF8020002B080BD0000EC
:1006E00080B582B08DF8070000208DF806009DF8D7
:1006F0000700652804DBFFE701208DF8060005E010
:100700009DF80710012002F04FF9FFE79DF8060061
:1007100002B080BD80B582B000208DF80700FFE7F1
:100720009DF80700072835DCFFE744F21440C4F2C7
:10073000000000689DF80710C840C00710B3FFE72D
:100740009DF80710012000FA01F244F21C41C4F2A6
:1007500000010868104308609DF8071040F2181067
:10076000C2F2000050F8210050B1FFE79DF80710D9
:1007700040F21810C2F2000050F82100804709E052
:10078000FFE700E0FFE7FFE79DF8070001308DF885
:100790000700C5E702B080BD80B582B000208DF8AB
:1007A0000700FFE79DF80700072835DCFFE745F263
:1007B0001440C4F2000000689DF80710C840C0074C
:1007C00010B3FFE79DF80710012000FA01F245F28F
:1007D0001C41C4F200010868104308609DF807102E
:1007E00040F23810C2F2000050F8210050B1FFE78B
:1007F0009DF8071040F23810C2F2000050F82100B6
:10080000804709E0FFE700E0FFE7FFE79DF807000A
:1008100001308DF80700C5E702B080BD80B582B019
:1008200000208DF80700FFE79DF80700072835DC5A
:10083000FFE746F21440C4F2000000689DF807107C
:10084000C840C00710B3FFE79DF80710012000FA69
:1008500001F246F21C41C4F200010868104308602E
:100860009DF8071040F25810C2F2000050F8210025
:1008700050B1FFE79DF8071040F25810C2F2000097
:1008800050F82100804709E0FFE700E0FFE7FFE7BD
:100890009DF8070001308DF80700C5E702B080BD64
:1008A00080B582B000208DF80700FFE79DF80700B3
:1008B000072835DCFFE747F21440C4F20000006867
:1008C0009DF80710C840C00710B3FFE79DF8071058
:1008D000012000FA01F247F21C41C4F2000108684D
:1008E000104308609DF8071040F27810C2F2000033
:1008F00050F8210050B1FFE79DF8071040F2781042
:10090000C2F2000050F82100804709E0FFE700E054
:10091000FFE7FFE79DF8070001308DF80700C5E706
:1009200002B080BD80B582B000208DF80700FFE7DF
:100930009DF80700072835DCFFE744F21440C4F2B5
:10094000020000689DF80710C840C00710B3FFE719
:100950009DF80710012000FA01F244F21C41C4F294
:1009600002010868104308609DF8071040F29810D3
:10097000C2F2000050F8210050B1FFE79DF80710C7
:1009800040F29810C2F2000050F82100804709E0C0
:10099000FFE700E0FFE7FFE79DF8070001308DF873
:1009A0000700C5E702B080BD80B582B000208DF899
:1009B0000700FFE79DF80700072835DCFFE745F251
:1009C0001440C4F2020000689DF80710C840C00738
:1009D00010B3FFE79DF80710012000FA01F245F27D
:1009E0001C41C4F202010868104308609DF807101A
:1009F00040F2B010C2F2000050F8210050B1FFE701
:100A00009DF8071040F2B010C2F2000050F821002B
:100A1000804709E0FFE700E0FFE7FFE79DF80700F8
:100A200001308DF80700C5E702B080BD80B5D8B0B1
:100A30005790579828B9FFE703208DF85B0100F025
:100A400068BF5798007C04281AD1FFE75798407C6C
:100A5000052810DCFFE75798017C012000FA01F21D
:100A60004EF20861C4F20F010868104308601420B8
:100A70008DF85B0103E015208DF85B01FFE70FE0C7
:100A80005798017C012000FA01F24EF20861C4F28D
:100A90000F0108681043086014208DF85B01FFE720
:100AA0009DF85B01142840F09280FFE75798007C86
:100AB000032808DCFFE75798017C4FF0402000EB4B
:100AC0000130559008E05798017C0020C4F20200E4
:100AD00000EB01305590FFE7559944F24B30C4F6D6
:100AE0004F40C1F820055798007C032808DCFFE739
:100AF0005798017C4FF0402000EB0130549008E003
:100B00005798017C0020C4F2020000EB01305490A1
:100B1000FFE754990320C1F824055798807830BB2B
:100B2000FFE75799087C4A7C01219140C9435391C2
:100B3000032808DCFFE75798017C4FF0402000EBCA
:100B40000130529008E05798017C0020C4F2020066
:100B500000EB01305290FFE7539A5299D1F800040C
:100B60001040C1F8000404208DF85B012EE0579876
:100B70008078012825D1FFE75799087C4A7C01211C
:100B800091405191032808DCFFE75798017C4FF012
:100B9000402000EB0130509008E05798017C002085
:100BA000C4F2020000EB01305090FFE7519A5099D7
:100BB000D1F800041043C1F8000404208DF85B0153
:100BC00003E005208DF85B01FFE7FFE700E0FFE7AA
:100BD0009DF85B01042864D1FFE75798C07801288D
:100BE00025D1FFE75799087C4A7C012191404F911C
:100BF000032808DCFFE75798017C4FF0402000EB0A
:100C000001304E9008E05798017C0020C4F20200A9
:100C100000EB01304E90FFE74F9A4E99D1F8FC035C
:100C20001043C1F8FC0306208DF85B0138E05798AB
:100C3000C07830BBFFE75799087C4A7C012191407E
:100C4000C9434D91032808DCFFE75798017C4FF01A
:100C5000402000EB01304C9008E05798017C0020C8
:100C6000C4F2020000EB01304C90FFE74D9A4C9922
:100C7000D1F8FC031040C1F8FC0306208DF85B019D
:100C80000DE05798C078022804D1FFE706208DF8C0
:100C90005B0103E007208DF85B01FFE7FFE7FFE75B
:100CA00000E0FFE79DF85B01062840F08F80FFE73A
:100CB00057984078022825D1FFE75799087C4A7C4D
:100CC000012191404B91032808DCFFE75798017CF4
:100CD0004FF0402000EB01304A9008E05798017C2B
:100CE0000020C4F2020000EB01304A90FFE74B9A6B
:100CF0004A99D1F800051043C1F8000508208DF885
:100D00005B0162E057984078012825D1FFE75799A9
:100D1000087C4A7C012191404991032808DCFFE7C7
:100D20005798017C4FF0402000EB0130489008E0DC
:100D30005798017C0020C4F2020000EB013048907B
:100D4000FFE7499A4899D1F804051043C1F8040512
:100D500008208DF85B0137E05798407828BBFFE703
:100D60005799087C4A7C012191404791032808DC6F
:100D7000FFE75798017C4FF0402000EB0130469090
:100D800008E05798017C0020C4F2020000EB01301B
:100D90004690FFE7479A4699D1F808051043C1F8F5
:100DA000080508208DF85B010DE05798407803286E
:100DB00004D1FFE708208DF85B0103E009208DF8DE
:100DC0005B01FFE7FFE7FFE7FFE700E0FFE79DF8D4
:100DD0005B01082840F0C281FFE75798007802289D
:100DE00069D1FFE75799087C4A7C01219140C943AA
:100DF0004591032808DCFFE75798017C4FF040201D
:100E000000EB0130449008E05798017C0020C4F2C8
:100E1000020000EB01304490FFE7459A4499D1F875
:100E200020041040C1F820045799087C4A7C012115
:100E30009140C9434391032808DCFFE75798017CA0
:100E40004FF0402000EB0130429008E05798017CC1
:100E50000020C4F2020000EB01304290FFE7439A09
:100E60004299D1F828051040C1F828055799087C07
:100E70004A7C012191404191032808DCFFE7579803
:100E8000017C4FF0402000EB0130409008E0579883
:100E9000017C0020C4F2020000EB01304090FFE72B
:100EA000419A4099D1F81C051043C1F81C050A204D
:100EB0008DF85B0151E157980078012869D1FFE76F
:100EC0005799087C4A7C01219140C9433F910328EE
:100ED00008DCFFE75798017C4FF0402000EB013021
:100EE0003E9008E05798017C0020C4F2020000EB1D
:100EF00001303E90FFE73F9A3E99D1F82004104020
:100F0000C1F820045799087C4A7C01219140C943CB
:100F10003D91032808DCFFE75798017C4FF0402003
:100F200000EB01303C9008E05798017C0020C4F2AF
:100F3000020000EB01303C90FFE73D9A3C99D1F86C
:100F40001C051040C1F81C055799087C4A7C0121FA
:100F500091403B91032808DCFFE75798017C4FF054
:100F6000402000EB01303A9008E05798017C0020C7
:100F7000C4F2020000EB01303A90FFE73B9A3A9945
:100F8000D1F828051043C1F828050A208DF85B0127
:100F9000E2E05798007800286AD1FFE75799087C6B
:100FA0004A7C01219140C9433991032808DCFFE7BD
:100FB0005798017C4FF0402000EB0130389008E05A
:100FC0005798017C0020C4F2020000EB01303890F9
:100FD000FFE7399A3899D1F820041040C1F820046D
:100FE0005799087C4A7C01219140C94337910328D5
:100FF00008DCFFE75798017C4FF0402000EB013000
:10100000369008E05798017C0020C4F2020000EB03
:1010100001303690FFE7379A3699D1F8280510400D
:10102000C1F828055799087C4A7C01219140C943A1
:101030003591032808DCFFE75798017C4FF04020EA
:1010400000EB0130349008E05798017C0020C4F296
:10105000020000EB01303490FFE7359A3499D1F863
:101060001C051040C1F81C050A208DF85B0172E0D8
:1010700057980078032869D1FFE75799087C4A7C84
:10108000012191403391032808DCFFE75798017C48
:101090004FF0402000EB0130329008E05798017C7F
:1010A0000020C4F2020000EB01303290FFE7339AD7
:1010B0003299D1F820041043C1F820045799087CD4
:1010C0004A7C01219140C9433191032808DCFFE7A4
:1010D0005798017C4FF0402000EB0130309008E041
:1010E0005798017C0020C4F2020000EB01303090E0
:1010F000FFE7319A3099D1F828051040C1F828054A
:101100005799087C4A7C01219140C9432F910328BB
:1011100008DCFFE75798017C4FF0402000EB0130DE
:101120002E9008E05798017C0020C4F2020000EBEA
:1011300001302E90FFE72F9A2E99D1F81C05104010
:10114000C1F81C050A208DF85B0103E00B208DF827
:101150005B01FFE7FFE7FFE7FFE700E0FFE79DF840
:101160005B010A2840F05C81FFE75798007900286E
:1011700069D1FFE75799087C4A7C012191402D9164
:10118000032808DCFFE75798017C4FF0402000EB74
:1011900001302C9008E05798017C0020C4F2020036
:1011A00000EB01302C90FFE72D9A2C99D1F8100517
:1011B0001043C1F810055799087C4A7C01219140E1
:1011C000C9432B91032808DCFFE75798017C4FF0B7
:1011D000402000EB01302A9008E05798017C002065
:1011E000C4F2020000EB01302A90FFE72B9A2A9903
:1011F000D1F814051040C1F814055799087C4A7CB1
:1012000001219140C9432991032808DCFFE7579841
:10121000017C4FF0402000EB0130289008E0579807
:10122000017C0020C4F2020000EB01302890FFE7AF
:10123000299A2899D1F80C051040C1F80C050C200A
:101240008DF85B01EBE057980079012869D1FFE741
:101250005799087C4A7C01219140C9432791032872
:1012600008DCFFE75798017C4FF0402000EB01308D
:10127000269008E05798017C0020C4F2020000EBA1
:1012800001302690FFE7279A2699D1F810051040E3
:10129000C1F810055799087C4A7C0121914025919D
:1012A000032808DCFFE75798017C4FF0402000EB53
:1012B0000130249008E05798017C0020C4F202001D
:1012C00000EB01302490FFE7259A2499D1F814050A
:1012D0001043C1F814055799087C4A7C01219140BC
:1012E000C9432391032808DCFFE75798017C4FF09E
:1012F000402000EB0130229008E05798017C00204C
:10130000C4F2020000EB01302290FFE7239A2299F9
:10131000D1F80C051040C1F80C050C208DF85B01CC
:101320007CE057980079022869D1FFE75799087C3B
:101330004A7C01219140C9432191032808DCFFE741
:101340005798017C4FF0402000EB0130209008E0DE
:101350005798017C0020C4F2020000EB013020907D
:10136000FFE7219A2099D1F810051040C1F8100527
:101370005799087C4A7C01219140C9431F91032859
:1013800008DCFFE75798017C4FF0402000EB01306C
:101390001E9008E05798017C0020C4F2020000EB88
:1013A00001301E90FFE71F9A1E99D1F814051040D6
:1013B000C1F814055799087C4A7C012191401D9180
:1013C000032808DCFFE75798017C4FF0402000EB32
:1013D00001301C9008E05798017C0020C4F2020004
:1013E00000EB01301C90FFE71D9A1C99D1F80C0509
:1013F0001043C1F80C050C208DF85B010DE05798E7
:101400000079032804D1FFE70C208DF85B0103E08D
:101410000D208DF85B01FFE7FFE7FFE7FFE700E046
:10142000FFE79DF85B010C2840F06482FFE75798C6
:101430004079002840F03182FFE7579800F01AFB0E
:101440008DF85B019DF85B01162840F02482FFE7D0
:101450005799087C4A7C01219140C9431B9103287C
:1014600008DCFFE75798017C4FF0402000EB01308B
:101470001A9008E05798017C0020C4F2020000EBAB
:1014800001301A90FFE71B9A1A99D1F81004104006
:10149000C1F810045798807928BBFFE75799087C5A
:1014A0004A7C012191401991032808DCFFE75798F5
:1014B000017C4FF0402000EB0130189008E0579875
:1014C000017C0020C4F2020000EB01301890FFE71D
:1014D000199A1899D1F804041043C1F804040E2095
:1014E0008DF85B012FE057988079012826D1FFE71E
:1014F0005799087C4A7C01219140C94317910328E0
:1015000008DCFFE75798017C4FF0402000EB0130EA
:10151000169008E05798017C0020C4F2020000EB0E
:1015200001301690FFE7179A1699D1F8040410407D
:10153000C1F804040E208DF85B0103E00F208DF844
:101540005B01FFE7FFE79DF85B010E2840F020817B
:10155000FFE75798C079002840F01A81FFE75799B4
:10156000087C4A7C01219140C9431591032808DC7D
:10157000FFE75798017C4FF0402000EB01301490BA
:1015800008E05798017C0020C4F2020000EB013013
:101590001490FFE7159A1499D1F808041040C1F887
:1015A00008045798007A002874D1FFE75799087CFF
:1015B0004A7C01219140C9431391032808DCFFE7CD
:1015C0005798017C4FF0402000EB0130129008E06A
:1015D0005798017C0020C4F2020000EB0130129009
:1015E000FFE7139A1299D1F80C041040C1F80C04CB
:1015F0005799087C4A7C01219140C94311910328E5
:1016000008DCFFE75798017C4FF0402000EB0130E9
:10161000109008E05798017C0020C4F2020000EB13
:1016200001301090FFE7119A1099D1F8140410407E
:10163000C1F814045799087C4A7C012191400F910C
:10164000032808DCFFE75798017C4FF0402000EBAF
:1016500001300E9008E05798017C0020C4F202008F
:1016600000EB01300E90FFE70F9A0E99D1F81004AD
:101670001043C1F81004579800F050F98DF85B0141
:101680009DF85B01102804D1FFE70E208DF85B0167
:10169000FFE77CE05798007A012873D1FFE757995C
:1016A000087C4A7C012191400D91032808DCFFE76A
:1016B0005798017C4FF0402000EB01300C9008E07F
:1016C0005798017C0020C4F2020000EB01300C901E
:1016D000FFE70D9A0C99D1F80C041043C1F80C04E3
:1016E0005799087C4A7C01219140C9430B910328FA
:1016F00008DCFFE75798017C4FF0402000EB0130F9
:101700000A9008E05798017C0020C4F2020000EB28
:1017100001300A90FFE70B9A0A99D1F8140410409F
:10172000C1F814045799087C4A7C01219140099121
:10173000032808DCFFE75798017C4FF0402000EBBE
:101740000130089008E05798017C0020C4F20200A4
:1017500000EB01300890FFE7099A0899D1F81004CE
:101760001043C1F81004579800F0D8F88DF85B01C9
:101770009DF85B01102804D1FFE70E208DF85B0176
:10178000FFE703E00F208DF85B01FFE7FFE781E053
:101790009DF85B010E2878D1FFE75798C0790128A2
:1017A00073D1FFE75799087C4A7C0121914007914A
:1017B000032808DCFFE75798017C4FF0402000EB3E
:1017C0000130069008E05798017C0020C4F2020026
:1017D00000EB01300690FFE7079A0699D1F808045C
:1017E0001043C1F808045799087C4A7C01219140B4
:1017F000C9430591032808DCFFE75798017C4FF0A7
:10180000402000EB0130049008E05798017C002054
:10181000C4F2020000EB01300490FFE7059A04993E
:10182000D1F814041040C1F814045799087C4A7C7C
:10183000012191400391032808DCFFE75798017CC0
:101840004FF0402000EB0130029008E05798017CF7
:101850000020C4F2020000EB01300290FFE7039A7F
:101860000299D1F810041043C1F81004579800F001
:1018700055F88DF85B019DF85B01102804D1FFE756
:101880000E208DF85B01FFE703E00F208DF85B0170
:10189000FFE7FFE700E0FFE72BE0579840790128DA
:1018A00026D1FFE75799087C4A7C01219140C94322
:1018B0000191032808DCFFE75798017C4FF0402096
:1018C00000EB0130009008E05798017C0020C4F242
:1018D000020000EB01300090FFE7019A0099D1F877
:1018E00010041040C1F810040E208DF85B01FFE7D2
:1018F000FFE700E0FFE79DF85B010E2804D1FFE75A
:1019000000208DF85B0103E001208DF85B01FFE70B
:10191000FFE79DF85B0158B080BD000080B582B044
:101920000190019820B9FFE703208DF8030056E0ED
:101930000198007C40B9FFE7002001F055F962B63C
:1019400010208DF8030049E00198007C012808D19F
:10195000FFE7012001F048F962B610208DF803007E
:101960003BE00198007C022808D1FFE7022001F04B
:101970003BF962B610208DF803002DE00198007C41
:10198000032808D1FFE7032001F02EF962B61020EA
:101990008DF803001FE00198007C042808D1FFE7C0
:1019A000042001F021F962B610208DF8030011E047
:1019B0000198007C052808D1FFE71E2001F014F9EA
:1019C00062B610208DF8030003E011208DF80300AB
:1019D000FFE7FFE7FFE7FFE7FFE7FFE7FFE79DF828
:1019E000030002B080BD000084B00390029100208B
:1019F0008DF806000398007C032808DCFFE70398B5
:101A0000017C4FF0402000EB0130009008E003988B
:101A1000017C0020C4F2020000EB01300090FFE7DF
:101A20000098D0F8FC030399497CC84000F00100FD
:101A30008DF806009DF8060038B9FFE702990020EE
:101A4000087006208DF8070010E09DF806000128B8
:101A500007D1FFE702990120087006208DF80700E2
:101A600003E007208DF80700FFE7FFE79DF8070078
:101A700004B0704782B00190019840B9FFE7019827
:101A8000C06820B9FFE703208DF803007EE00198CD
:101A9000007C68B9FFE70199C8684A7C40F21811D8
:101AA000C2F2000141F8220016208DF803006CE01C
:101AB0000198007C01280DD1FFE70199C8684A7C94
:101AC00040F23811C2F2000141F8220016208DF8D0
:101AD000030059E00198007C02280DD1FFE701992D
:101AE000C8684A7C40F25811C2F2000141F8220055
:101AF00016208DF8030046E00198007C03280DD1E4
:101B0000FFE70199C8684A7C40F27811C2F20001EF
:101B100041F8220016208DF8030033E00198007C84
:101B2000042817D1FFE70198007C07280DDBFFE7A9
:101B30000199C8684A7C40F29811C2F2000141F84C
:101B4000220016208DF8030003E015208DF8030015
:101B5000FFE716E00198007C05280DD1FFE7019909
:101B6000C8684A7C40F2B011C2F2000141F822007C
:101B700016208DF8030003E017208DF80300FFE71F
:101B8000FFE7FFE7FFE7FFE7FFE7FFE79DF8030059
:101B900002B0704784B00390039820B9FFE7032098
:101BA0008DF80B0024E00399087C4A7C01219140C8
:101BB0000191032808DCFFE70398017C4FF04020E7
:101BC00000EB0130009008E00398017C0020C4F293
:101BD000020000EB01300090FFE7019A0099D1F874
:101BE000FC035040C1F8FC0306208DF80B00FFE712
:101BF0009DF80B0004B0704786B005908DF8131067
:101C00009DF81300012825D1FFE70599087C4A7C3F
:101C1000012191400391032808DCFFE70598017C2E
:101C20004FF0402000EB0130029008E00598017C65
:101C30000020C4F2020000EB01300290FFE7039A9B
:101C40000299D1F8FC031043C1F8FC0306208DF87B
:101C500012002EE09DF8130030BBFFE70599087CC9
:101C60004A7C01219140C9430191032808DCFFE728
:101C70000598017C4FF0402000EB0130009008E017
:101C80000598017C0020C4F2020000EB01300090B6
:101C9000FFE7019A0099D1F8FC031040C1F8FC035A
:101CA00006208DF8120003E007208DF81200FFE7F0
:101CB000FFE79DF8120006B07047000080B582B0C3
:101CC0008DF8070000208DF806009DF807000B280E
:101CD0003BDCFFE79DF80700072809DCFFE79DF8DC
:101CE00007100020C4F2030000EB0130009009E06F
:101CF0009DF8071044F20000C4F2040000EB01302C
:101D00000090FFE70099886920F0010088619DF844
:101D1000070020B9FFE7132000F04AFF14E09DF808
:101D20000700062804D1FFE75E2000F041FF0AE02B
:101D30009DF80700072804D1FFE7602000F038FF76
:101D400000E0FFE7FFE7FFE703E001208DF8060072
:101D5000FFE79DF8060002B080BD000080B582B0AC
:101D60008DF8070000208DF806009DF807000B286D
:101D700047DCFFE79DF8071040F2D610C2F20000E2
:101D8000405C01283CD1FFE79DF80700072809DCEB
:101D9000FFE79DF807100020C4F2030000EB0130BC
:101DA000009009E09DF8071044F20000C4F204001E
:101DB00000EB01300090FFE70099886940F00100D6
:101DC00088619DF8070020B9FFE7132000F024FF89
:101DD00014E09DF80700062804D1FFE75E2000F01C
:101DE0001BFF0AE09DF80700072804D1FFE76020E9
:101DF00000F012FF00E0FFE7FFE7FFE762B6FFE752
:101E000003E001208DF80600FFE79DF8060002B010
:101E100080BD000088B0079000208DF81B00079857
:101E200000788DF81A00079820B9FFE704208DF894
:101E30001B0057E19DF81A000B2800F34E81FFE7C5
:101E40009DF81A1040F2D610C2F20000405C002843
:101E500040F03E81FFE79DF81A0005280DDCFFE702
:101E60009DF81A10012000FA01F24EF20461C4F24A
:101E70000F010868104308600DE09DF81A00811FEB
:101E8000012000FA01F24EF25C61C4F20F01086811
:101E900010430860FFE79DF81A00072809DCFFE7F8
:101EA0009DF81A100020C4F2030000EB01300590E9
:101EB00009E09DF81A1044F20000C4F2040000EB9F
:101EC00001300590FFE70599C86820F00100C8605F
:101ED00007984078052800F3F680FFE707984078D8
:101EE000012800F3D280FFE707988078E0B9FFE788
:101EF0009DF81A00072809DCFFE79DF81A1000205A
:101F0000C4F2030000EB0130049009E09DF81A10C0
:101F100044F20000C4F2040000EB01300490FFE73B
:101F200004990420086025E00798807801281CD1D6
:101F3000FFE79DF81A00072809DCFFE79DF81A1053
:101F40000020C4F2030000EB0130039009E09DF88B
:101F50001A1044F20000C4F2040000EB01300390B8
:101F6000FFE703990020086003E003208DF81B00C1
:101F7000FFE7FFE79DF81B00002840F08480FFE7A3
:101F800007984078E0B9FFE79DF81A00072809DCB8
:101F9000FFE79DF81A100020C4F2030000EB0130A7
:101FA000029009E09DF81A1044F20000C4F2040007
:101FB00000EB01300290FFE702990120486022E027
:101FC0000798407801281CD1FFE79DF81A000728E0
:101FD00009DCFFE79DF81A100020C4F2030000EBB3
:101FE0000130019009E09DF81A1044F20000C4F29B
:101FF000040000EB01300190FFE7019902204860E6
:1020000000E0FFE7FFE70798C078012831D1FFE73C
:102010000798406820B9FFE706208DF81B0027E0ED
:102020009DF81A00072809DCFFE79DF81A10002028
:10203000C4F2030000EB0130009009E09DF81A1093
:1020400044F20000C4F2040000EB01300090FFE70E
:102050000099886920F001008861079840689DF820
:102060001A2040F2E411C2F2000141F82200FFE719
:1020700000E0FFE79DF81A2040F2D611C2F20001FD
:102080000120885400E0FFE71CE007984078022810
:1020900001D1FFE715E007984078032801D1FFE759
:1020A0000EE007984078042801D1FFE707E0079881
:1020B0004078052801D1FFE700E0FFE7FFE7FFE7F1
:1020C000FFE7FFE703E002208DF81B00FFE703E0D6
:1020D00005208DF81B00FFE703E001208DF81B00B1
:1020E000FFE7FFE79DF81B0008B070470000000005
:1020F00080B590B08DF83F000E918DF8372000200C
:1021000006908DF8360040F20000C2F20000006830
:1021100001F091F941EC100B9FED971B51EC110B65
:1021200053EC102B01F000F80246069807920A467D
:10213000079942EC101B8DED0A0B099008909DF851
:102140003F000B2800F30D81FFE79DF83F1040F2A0
:10215000D610C2F20000405C012840F0FD80FFE78D
:102160009DF83700022800F3F280FFE79DF8370062
:10217000E0B9FFE70E9801F05EF941EC100B9FED1E
:10218000821B53EC112B51EC100B00F0CDFF41ECF6
:10219000110B9DED0A0B51EC110B53EC102B00F0C1
:1021A000C3FF41EC100B8DED080B33E09DF83700B9
:1021B00001281CD1FFE70E9801F03DF941EC100B0E
:1021C0009FED6F1B53EC112B51EC100B00F0ACFF8B
:1021D00041EC110B9DED0A0B51EC110B53EC102B44
:1021E00000F0A2FF41EC100B8DED080B11E00E98F2
:1021F00001F021F941EC100B9DED0A1B53EC112B62
:1022000051EC100B00F090FF41EC100B8DED080B22
:10221000FFE7FFE70898099901F0E0F805909DF8BD
:102220003F00072809DCFFE79DF83F100020C4F2BB
:10223000030000EB0130049009E09DF83F1044F2E8
:102240000000C4F2040000EB01300490FFE70598A1
:10225000049988629DF83F00072809DCFFE79DF894
:102260003F100020C4F2030000EB0130039009E0AE
:102270009DF83F1044F20000C4F2040000EB01306E
:102280000390FFE70399C86840F00100C8609DF81B
:102290003F00072809DCFFE79DF83F100020C4F24B
:1022A000030000EB0130029009E09DF83F1044F27A
:1022B0000000C4F2040000EB01300290FFE7029836
:1022C0008069C00708B1FFE740E0FFE79DF83F00E5
:1022D000072809DCFFE79DF83F100020C4F2030047
:1022E00000EB0130019009E09DF83F1044F200003E
:1022F000C4F2040000EB01300190FFE70198C069CF
:10230000C00708B9FFE7E1E79DF83F00072809DCAF
:10231000FFE79DF83F100020C4F2030000EB0130FE
:10232000009009E09DF83F1044F20000C4F2040060
:1023300000EB01300090FFE70099486A40F001008F
:1023400048629DF83F0000F023F8FFE703E0072014
:102350008DF83600FFE703E005208DF83600FFE733
:1023600003E001208DF83600FFE79DF8360010B03D
:1023700080BD00BF00BF00BF000000000000F03FB4
:102380000000000000408F400000000080842E41CB
:1023900082B08DF8070000208DF806009DF8070038
:1023A0000B281EDCFFE79DF80700072809DCFFE784
:1023B0009DF807100020C4F2030000EB01300090EC
:1023C00009E09DF8071044F20000C4F2040000EB9D
:1023D00001300090FFE70099C86820F00100C86054
:1023E00003E001208DF80600FFE79DF8060002B02B
:1023F0007047000080B582B0019000208DF8030086
:102400008DF802000198FFF705FD8DF802009DF898
:10241000020020B1FFE701208DF8030000E0FFE794
:102420009DF8030002B080BD80B584B08DF80F0028
:102430008DF80E1002928DF8073000208DF80600FE
:102440008DF805009DF80E0038B9FFE79DF80F00E4
:10245000FFF734FC8DF8050006E09DF80F00FFF74C
:102460007DFC8DF80500FFE79DF8050020B1FFE732
:1024700001208DF8060012E09DF80F0002999DF8EA
:102480000720FFF735FE8DF805009DF8050020B107
:10249000FFE701208DF8060000E0FFE7FFE79DF869
:1024A000060004B080BD000080B588B00790079892
:1024B00020B9FFE702208DF81B0032E002208DF8E2
:1024C000040003228DF8052001218DF80610079BDA
:1024D0009B788DF807308DF808208DF809108DF85D
:1024E0000A008DF80B008DF80C000020049007986E
:1024F00000788DF81400079840788DF8150001A831
:10250000FEF794FA8DF81A009DF81A0020B9FFE73B
:1025100000208DF81B0003E001208DF81B00FFE771
:10252000FFE79DF81B0008B080BD000080B588B0B3
:102530000790079820B9FFE702208DF81B0033E0D1
:1025400002208DF8040003228DF8052001218DF86A
:102550000610079B9B788DF807308DF808208DF8C2
:1025600009108DF80A008DF80B008DF80C00002181
:102570000491079800788DF81400079840788DF83A
:10258000150001A8FFF738FB8DF81A009DF81A0016
:10259000062804D1FFE700208DF81B0003E001208E
:1025A0008DF81B00FFE7FFE79DF81B0008B080BD1A
:1025B00080B588B00790079820B9FFE702208DF812
:1025C0001B0033E002208DF8040003228DF8052063
:1025D00001218DF80610079B9B788DF807308DF848
:1025E00008208DF809108DF80A008DF80B008DF881
:1025F0000C0000200490079800788DF814000798CC
:1026000040788DF8150001A8FFF7F6FA8DF81A004A
:102610009DF81A00062804D1FFE700208DF81B0062
:1026200003E001208DF81B00FFE7FFE79DF81B008A
:1026300008B080BD80B582B040F20400C2F2000054
:102640000190FFF7B5FF01980330FFF76FFF019886
:102650000630FFF76BFF02B080BD000080B582B08E
:1026600040F20400C2F2000001900330FFF7A0FF27
:102670000198FFF75BFF01980630FFF757FF02B0A4
:1026800080BD000080B582B040F20400C2F20000BC
:1026900001900630FFF78CFF0198FFF789FF019842
:1026A0000330FFF785FF02B080BD000080B582B027
:1026B00040F20400C2F2000001900630FFF778FFFC
:1026C0000198FFF733FF01980330FFF72FFF02B0A7
:1026D00080BD000080B58EB00D900C9100208DF86B
:1026E0002F000C9830BBFFE702218DF81810002056
:1026F0008DF819008DF81A008DF81B100D9A92783C
:102700008DF81C2001228DF81D208DF81E108DF8EB
:102710001F108DF8201009900D9800788DF8280072
:102720000D9840788DF8290006A8FEF77FF98DF8FE
:102730002E0026E002218DF8041000208DF80500FF
:102740008DF806008DF807100D9989788DF808101E
:102750008DF8090001218DF80A108DF80B008DF815
:102760000C000C9804900D9800788DF814000D98CA
:1027700040788DF8150001A8FEF758F98DF82E0065
:10278000FFE79DF82E0020B9FFE700208DF82F000D
:1027900003E001208DF82F00FFE79DF82F000EB019
:1027A00080BD000080B588B00790069102218DF8A9
:1027B000001000208DF801008DF802008DF8031044
:1027C000079A92788DF8042001228DF805208DF863
:1027D00006108DF807108DF8081003900798007800
:1027E0008DF81000079840788DF8110068460DF1BB
:1027F0001601FFF7F9F80798807870B9FFE79DF8A0
:102800001600012804D1FFE706990120087003E0B3
:10281000069900200870FFE716E0079880780128E5
:102820000DD1FFE79DF8160020B9FFE706990020BB
:10283000087003E0069901200870FFE703E002201A
:102840008DF81700FFE7FFE704208DF817009DF8CB
:10285000170008B080BD000080B582B000208DF860
:1028600007008DF80700FFE79DF8070001281CDC32
:10287000FFE79DF8070000EB400140F21400C2F2B0
:10288000000000EBC1000430FEF7D0F89DF80720EF
:1028900040F2D111C2F2000101208854FFE79DF8F7
:1028A000070001308DF80700DEE700F0D5FB0020BF
:1028B00002B080BD80B582B000208DF807008DF891
:1028C0000700FFE79DF80700012839DCFFE79DF8C6
:1028D000071040F2D110C2F20000405C012827D15D
:1028E000FFE740F24400C2F20000007801280FD157
:1028F000FFE79DF8070000EB400140F21400C2F230
:10290000000000EBC10004300021FFF775F90EE074
:102910009DF8070000EB400140F21400C2F20000F5
:1029200000EBC10004300121FFF766F9FFE700E08A
:10293000FFE7FFE79DF8070001308DF80700C1E7CA
:1029400040F24400C2F200000078012814D1FFE7F1
:1029500040F24800C2F20000007840F21621C2F2B4
:10296000000109880122FFF7C3FB40F24401C2F2D3
:1029700000010020087014E040F24800C2F200009C
:10298000007840F21421C2F200010988012200926D
:10299000FFF7AEFB009840F24401C2F2000108705C
:1029A000FFE702B080BD000080B582B0ADF8060040
:1029B0008DF8051040F24800C2F200000090007847
:1029C000FFF7CCF90098BDF806109DF8052051439B
:1029D00048F21F52C5F2EB12A1FB0221490940F255
:1029E0001422C2F200021180BDF8061012888A1A61
:1029F00040F21621C2F200010A8000780988012203
:102A0000FFF776FB002002B080BD000081B04EF6DB
:102A10008851CEF20001086840F4700008604EF260
:102A20007001C4F20F0142F61000C0F2807008601D
:102A30004EF26002C4F20F0243F6D120C0F28E7053
:102A4000106042F64250C0F29E10106042F6000044
:102A5000C0F28010086000200090FFE70098C008D6
:102A60007C2805D8FFE7FFE7009801300090F5E7E4
:102A70004EF26001C4F20F0140F64250C0F29E10C7
:102A800008604EF27001C4F20F0140F60000C0F27F
:102A90008010086000200090FFE70098C0087C28A4
:102AA00005D8FFE7FFE7009801300090F5E74EF208
:102AB0006001C4F20F0140F64250C0F2DE1008601F
:102AC000FFE74EF25000C4F20F00006800F0400033
:102AD000402801D0FFE7F4E74EF26001C4F20F0195
:102AE00040F24250C0F2DE1008604EF27001C4F2B3
:102AF0000F014FF0C070086000200090FFE70098C1
:102B000042F20F71884205D8FFE7FFE700980130D5
:102B10000090F4E701B0704780B540F2E410C2F2D3
:102B20000000006870B1FFE740F2E410C2F200005C
:102B3000006880472421C4F20301086840F00100C6
:102B4000086000E0FFE780BD80B540F2E410C2F20B
:102B50000000806978B1FFE740F2E410C2F20000A3
:102B60008069804746F22401C4F20301086840F0FE
:102B70000100086000E0FFE780BD000080B540F282
:102B8000E410C2F20000C06978B1FFE740F2E4103F
:102B9000C2F20000C069804747F22401C4F2030179
:102BA000086840F00100086000E0FFE780BD000019
:102BB00081B0ADF80200BDF90200002812D4FFE791
:102BC000BDF9021001F01F02012090404A094EF2A7
:102BD0008011CEF2000141F82200BFF34F8FBFF306
:102BE0006F8FFFE701B0704781B0ADF80200BDF90B
:102BF000020000280ED4FFE7BDF9021001F01F0209
:102C0000012090404A094EF20011CEF2000141F835
:102C10002200FFE701B0704781B0ADF80200BDF9B6
:102C2000020000280ED4FFE7BDF9021001F01F02D8
:102C3000012090404A094EF20011CEF2000141F805
:102C40002200FFE701B0704780B582B040F20D006E
:102C5000C2F20000009043F2F901C0F20001FFF758
:102C600039FD009803300021FFF734FD40F20400E5
:102C7000C2F200000190FFF717FC01980330FFF744
:102C800013FC01980630FFF70FFC40F2B000C2F2CF
:102C90000000FFF7AFFB40F25000C2F20000FDF76A
:102CA00075FC02B080BD000080B540F24500C2F264
:102CB00000000078022815D1FFE740F2D010C2F2E0
:102CC00000000078012809D1FFE7FFF7EFFC40F290
:102CD000D011C2F200010020087000E0FFE700F010
:102CE000D3F955E140F24500C2F200000078002817
:102CF00040F0A280FFE740F2D510C2F20000007859
:102D0000E0B9FFE740F2D310C2F2000000780128DA
:102D100014D1FFE740F21821C2F20001012008702F
:102D200040F2D511C2F20001087040F2D311C2F294
:102D300000010020087000F02DF97CE040F2D31073
:102D4000C2F200000078012817D1FFE740F21820F6
:102D5000C2F20000007801280FD1FFE740F21821ED
:102D6000C2F200010220087040F2D311C2F2000149
:102D70000020087000F048F95CE040F2D310C2F285
:102D800000000078012817D1FFE740F21820C2F2B6
:102D90000000007802280FD1FFE740F21821C2F2AC
:102DA00000010320087040F2D311C2F2000100209C
:102DB000087000F013F93CE040F2D310C2F20000BA
:102DC0000078012816D1FFE740F21820C2F2000077
:102DD000007803280ED1FFE740F21821C2F200016B
:102DE0000020087040F2D311C2F20001087000F018
:102DF0000BF91DE040F2D310C2F200000078012868
:102E000014D1FFE740F21820C2F20000007868B940
:102E1000FFE740F24501C2F200010120087040F2D4
:102E2000D511C2F200010020087000E0FFE7FFE7C3
:102E3000FFE7FFE7FFE7AAE040F24500C2F200002B
:102E40000078012840F0A180FFE740F2D510C2F2DF
:102E500000000078E0B9FFE740F2D310C2F20000B2
:102E60000078012814D1FFE740F21821C2F20001D6
:102E70000120087040F2D511C2F20001087040F242
:102E8000D311C2F200010020087000F095F87BE039
:102E900040F2D310C2F200000078012817D1FFE7FA
:102EA00040F21820C2F20000007801280FD1FFE79D
:102EB00040F21821C2F200010220087040F2D31142
:102EC000C2F200010020087000F09EF85BE040F2C2
:102ED000D310C2F200000078012817D1FFE740F2BA
:102EE0001820C2F20000007802280FD1FFE740F25C
:102EF0001821C2F200010320087040F2D311C2F27F
:102F000000010020087000F069F83BE040F2D310A7
:102F1000C2F200000078012816D1FFE740F2182025
:102F2000C2F20000007803280ED1FFE740F218211A
:102F3000C2F200010020087040F2D311C2F2000179
:102F4000087000F061F81CE040F2D310C2F20000FB
:102F50000078012813D1FFE740F21820C2F20000E8
:102F6000007860B9FFE740F24501C2F2000100209D
:102F7000087040F2D511C2F20001087000E0FFE7CE
:102F8000FFE7FFE7FFE7FFE700E0FFE7FFE7FFE717
:102F900080BD000080B53220FDF780FAFFF74AFBC4
:102FA00040F2B000C2F200000078012103220223A7
:102FB000FFF73AFA80BD000080B51E20FDF76EFADB
:102FC000FFF74CFB40F2B000C2F200000078012194
:102FD00002231A46FFF728FA80BD000080B582B0B0
:102FE00001200190FDF716FBFFF74CFB019B40F21F
:102FF000B000C2F2000000784FF47A721946FFF771
:1030000013FA02B080BD000080B582B040F25000DB
:10301000C2F2000000900021FDF722FB0098012180
:103020000191FDF71DFBFFF741FB019B40F2B00052
:10303000C2F2000000784FF4FA721946FFF7F4F973
:1030400002B080BD80B582B000200190FFF7FCFD8A
:10305000FFE7FFF729FEFCE780B540F2D410C2F28B
:103060000000007868B9FFE740F24800C2F20000B3
:10307000FEF7D0FE40F2D411C2F200010120087028
:1030800000E0FFE780BD000080B584B001208DF82E
:103090000F0040F20D00C2F2000003300DF10F01ED
:1030A000FFF780FB9DF80F0018BBFFE740F2B00070
:1030B000C2F200000090007800210291C822012392
:1030C0000193FFF7B1F9FFF7F1FA0098019A02991D
:1030D00040F2D313C2F200031970007802231146A4
:1030E000FFF7A2F9029840F24501C2F20001087010
:1030F00000E0FFE704B080BD80B5FFF785FF40F238
:10310000D011C2F200010120087040F24501C2F264
:1031100000010220087080BD40F2D311C2F200010C
:1031200001200870704700002DE9C04130B4DFF87D
:10313000A4C23CEA111418BF3CEA131400F0ED805D
:103140001CEA111481EA030544EAD57418BF1CEA8D
:10315000131500F0C880A4EB050404F17F7404F596
:1031600000344FF0004545EAC12145EAC32341EA56
:10317000505143EA52534FEAC0204FEAC2229942CB
:1031800008BF904200F09D804FEA13650FF244168D
:10319000765D4FEA134506FB05F7C7F1807706FB1E
:1031A00007F74FEAD737A7FB03687642A7FB06CE9F
:1031B000C8F5803838BFA8F1010807FB08E6A6FB70
:1031C000028C4FF0000EE6FB03CEDCF1000CCEF1DA
:1031D000004E38BFAEF1010EA6FB0C584FF00007B1
:1031E000E6FB0E87A1FB08C6A0FB07CE16EB0E067A
:1031F0004FF0000545F10005E1FB076515F1E04ED4
:103200007EBFA4F580345FEA46066D4116F1800763
:1032100045F100054FEA172747EA05674FEA1525EC
:103220004FEA0666A6F1DE46B6F1805F20D9384641
:1032300005EBC47124F0010C01EB0C11BCF1FE6F25
:1032400002D8F0BCBDE8008124425CBF01F5801EBD
:103250009EEAC47F02D4F0BCBDE80081244200F1A4
:103260003980A1F1C041F0BCBDE8004100F044B993
:103270004FEAD02040EA41504FEAD1214FEAD22212
:1032800042EA43524FEAD323A7FB028607FB0366B9
:1032900005FB02661EEA0E0F58BFA6EB0056B6EB02
:1032A00000564FEA520E4EEAC37E18EB0E0E56EB56
:1032B000530EBCD518EB02085E417F1C55F100058A
:1032C000B5E74FF480154FF000074FF000064FF0C0
:1032D0000008ACE701F1C04101F000414FF00000EF
:1032E000F0BCBDE800810CEA131511EA0C1F00D0F8
:1032F0000CE013EA0C1F00F026804FF0000081EA7A
:10330000030101F00041F0BCBDE80081F0BCBDE864
:10331000004181EA030100F0EFB8F0BCBDE80041D4
:1033200070B500F09BF800BF097EFC3E00F007B8C6
:103330004FF0000081EA030101F00041704781EA8B
:10334000030100F0D9B8F0BCBDE8004122494FF0BC
:1033500000007047FFFDFBF9F7F5F4F2F0EEEDEB3E
:10336000E9E8E6E4E3E1E0DEDDDBDAD8D7D5D4D383
:10337000D1D0CFCDCCCBCAC8C7C6C5C4C2C1C0BFCF
:10338000BEBDBCBBBAB9B8B7B6B5B4B3B2B1B0AFD5
:10339000AEADACABAAA9A8A8A7A6A5A4A3A3A2A1B9
:1033A000A09F9F9E9D9C9C9B9A9999989797969574
:1033B00095949393929191908F8F8E8E8D8C8C8B10
:1033C0008B8A898988888787868585848483838298
:1033D000828181800000FF070000F87F4FEA1153CF
:1033E000A3F58063D3F11E03A8BFD3F1200C08DB43
:1033F0004FF0004242EAC12252EA505232FA03F040
:10340000704709420BD4102BC4BF0020704703F54E
:10341000787CBCF1FF3F05D04FF0FF3070474FF094
:103420000000704770B500F019F800BF4992248081
:1034300000207047F0E7B0FA80F310FA03F10AD0E9
:10344000C3F11D0303F580634FEA03524FEA415075
:1034500002EBD12170474FF0000070470EF1020ED1
:103460002EF0030E5EF8046B364205D4012A43EBBE
:10347000030515F5001F12D8012841EB010C1CF5BE
:10348000001F0CD80ED14FEAD17C0CEB4C0C0CF188
:10349000020C15F5001F08BF4CEBD37C04E04FF085
:1034A000080C01E04FEAD37C0CEB4C0526FA05F63C
:1034B00006F00706B6F1040C06D20EEB860CBDE84A
:1034C00070404CF0010C6047DFE80CF0090B020281
:1034D0004FF00041A1F500214FF0000070BD1946EA
:1034E0001046012851EB010418BFD4F5001484BF25
:1034F000002001F0004170BD0808A0F500114FEA5E
:1035000031017047F1EE100A4FF6FF71C0F2C03181
:1035100020EA010040F04070E1EE100A7047000020
:103520004035000000000020B8000000A8020000A4
:10353000F8350000B800002068030000C402000055
:1035400080F0FA02050100050200050300010601F2
:103550000504000000000000020001010001020259
:103560000200000000000000010700000100000050
:103570000200010100010202020000000000000040
:10358000050000000102000006000001B52800004F
:103590000200010000010202020000000000000021
:1035A000040200000000000002000100000102020D
:1035B0000200000000000000040300000100000001
:1035C00002000100000102020200000000000000F1
:1035D00004040000020000000200010000010202D9
:1035E00002000000000000000405000003000000CD
:0835F000070000011931000081
:040000050000030DE7
:00000001FF
