:020000040000FA
:10000000180400200D030000150300001703000072
:10001000190300001B0300001D0300000000000086
:100020000000000000000000000000001F030000AE
:10003000210300000000000023030000250300004E
:1000400065060000B1060000FD060000490700003B
:100050009507000031030000330300003503000062
:1000600037030000390300003B0300003D0300009C
:100070003F0300004103000043030000450300006C
:1000800047030000490300004B0300006921000002
:100090004F0300005103000053030000550300000C
:1000A00057030000590300005B0300005D030000DC
:1000B0005F03000061030000E1070000650300002A
:1000C00067030000690300006B0300006D0300007C
:1000D0006F0300007103000073030000750300004C
:1000E0007703000079030000000000007B0300009C
:1000F0007D0300007F0300008103000083030000F4
:100100008503000087030000890300008B030000C3
:1001100000000000000000008D0300008F030000BD
:100120009103000093030000950300009703000073
:10013000990300009B0300009D0300009F03000043
:1001400000000000000000000000000000000000AF
:10015000A1030000A3030000A5030000A703000003
:10016000000000000000000000000000000000008F
:10017000000000000000000000000000000000007F
:10018000000000000000000000000000000000006F
:10019000000000000000000000000000000000005F
:1001A000000000000000000000000000000000004F
:1001B000A9030000AB0300008D210000AF03000085
:1001C000B1210000B3030000B5030000B703000035
:1001D000B9030000BB030000BD030000BF03000023
:1001E000C1030000C3030000C503000000000000BD
:1001F00000000000C7030000C9030000CB0300009B
:10020000CD030000CF03000000000000000000004C
:10021000D1030000D3030000D5030000D703000082
:10022000D9030000DB030000DD030000DF03000052
:10023000E1030000E3030000E5030000E703000022
:10024000E9030000EB030000ED030000EF030000F2
:10025000F1030000F3030000F5030000F7030000C2
:10026000F9030000FB030000FD03000000F002F8AA
:1002700000F03CF80AA090E8000C82448344AAF104
:100280000107DA4501D100F031F8AFF2090EBAE802
:100290000F0013F0010F18BFFB1A43F001031847BA
:1002A0004827000068270000103A24BF78C878C1AA
:1002B000FAD8520724BF30C830C144BF04680C606C
:1002C000704700000023002400250026103A28BFB4
:1002D00078C1FBD8520728BF30C148BF0B607047B8
:1002E0001FB502F035FB1FBD10B510BD00F0CDF8F5
:1002F0001146FFF7F5FF02F0E1F800F0EBF803B468
:10030000FFF7F2FF03BC00F0F3F800003F4880471E
:100310003F480047FEE7FEE7FEE7FEE7FEE7FEE7B1
:10032000FEE7FEE7FEE7FEE7FEE7FEE7FEE7FEE7A5
:10033000FEE7FEE7FEE7FEE7FEE7FEE7FEE7FEE795
:10034000FEE7FEE7FEE7FEE7FEE7FEE7FEE7FEE785
:10035000FEE7FEE7FEE7FEE7FEE7FEE7FEE7FEE775
:10036000FEE7FEE7FEE7FEE7FEE7FEE7FEE7FEE765
:10037000FEE7FEE7FEE7FEE7FEE7FEE7FEE7FEE755
:10038000FEE7FEE7FEE7FEE7FEE7FEE7FEE7FEE745
:10039000FEE7FEE7FEE7FEE7FEE7FEE7FEE7FEE735
:1003A000FEE7FEE7FEE7FEE7FEE7FEE7FEE7FEE725
:1003B000FEE7FEE7FEE7FEE7FEE7FEE7FEE7FEE715
:1003C000FEE7FEE7FEE7FEE7FEE7FEE7FEE7FEE705
:1003D000FEE7FEE7FEE7FEE7FEE7FEE7FEE7FEE7F5
:1003E000FEE7FEE7FEE7FEE7FEE7FEE7FEE7FEE7E5
:1003F000FEE7FEE7FEE7FEE7FEE7FEE7FEE70000BA
:1004000004480549034A054B70470000D12000000D
:100410006D020000180200201804002018020020BD
:1004200010B5203AC0F00B80B1E81850203AA0E88F
:100430001850B1E81850A0E81850BFF4F5AF5FEAC3
:10044000027C24BFB1E81850A0E8185044BF18C976
:1004500018C0BDE810405FEA827C24BF51F8043B1D
:1004600040F8043B08BF7047D20728BF31F8023B71
:1004700048BF11F8012B28BF20F8023B48BF00F805
:10048000012B7047704770477047754600F02CF895
:10049000AE4605006946534620F00700854618B071
:1004A00020B5FFF7ADFFBDE820404FF000064FF04C
:1004B00000074FF000084FF0000B21F00701AC4699
:1004C000ACE8C009ACE8C009ACE8C009ACE8C009B8
:1004D0008D46704710B50446AFF300802046BDE856
:1004E0001040FFF70CBF000000487047B801002023
:1004F00001491820ABBEFEE726000200704700004D
:1005000070B5054600260024284600F09EF800BF7E
:100510001BE0204604EBD0714910A4EB410149B91E
:1005200004EB44010B4A02EBC100012101F052F936
:10053000064608E004EB4401064A02EBC100002134
:1005400001F048F90646601CC4B2042CE1DB3046D9
:1005500070BD0000100000202DE9F04105460C465A
:100560000027002000EB4400C6B20DB9012712E0BD
:10057000002000EB4400C6B207E006EB460105EBA5
:10058000C10001F0F9F8074604E0022000EB440046
:10059000B042F2DC00BF3846BDE8F08170B50446D9
:1005A000002500260CB9012615E000250EE005EB1C
:1005B000450104EBC10000F039F906460EB10126F1
:1005C00006E0A07800B90126681CC5B2042DEEDB58
:1005D00000BF01F0F5FC304670BD000070B5044668
:1005E00000253CB900210848FFF7B6FF322000F093
:1005F0002CF806E001210448FFF7AEFF322000F09E
:1006000024F8284670BD0000100000202DE9F041BC
:1006100004460D46002700260CB9012712E00026EB
:100620000BE006EB460104EBC100002101F0D2F81B
:10063000074607B10127701CC6B2022000EB450037
:10064000B042EEDC3846BDE8F08170B504460025C6
:10065000642C01DD012503E02146012001F016FD97
:10066000284670BD10B5002419E00F480068E0402E
:1006700000F0010088B10C48083000680121A14059
:100680000843094908310860084850F8240020B19F
:10069000064951F82400804703E0601CC4B2082CCE
:1006A000E3DB00BF10BD000014440040C400002084
:1006B00010B5002419E00F480068E04000F0010088
:1006C00088B10C48083000680121A140084309495D
:1006D00008310860084850F8240020B1064951F854
:1006E0002400804703E0601CC4B2082CE3DB00BF99
:1006F00010BD000014540040E400002010B5002498
:1007000019E00F480068E04000F0010088B10C4893
:10071000083000680121A1400843094908310860F8
:10072000084850F8240020B1064951F824008047B9
:1007300003E0601CC4B2082CE3DB00BF10BD000066
:10074000146400400401002010B5002419E00F4893
:100750000068E04000F0010088B10C4808300068F3
:100760000121A1400843094908310860084850F8B0
:10077000240020B1064951F82400804703E0601CA2
:10078000C4B2082CE3DB00BF10BD000014740040AD
:100790002401002010B5002419E00F480068E04053
:1007A00000F0010088B10C48083000680121A14028
:1007B0000843094908310860084850F8240020B16E
:1007C000064951F82400804703E0601CC4B2082C9D
:1007D000E3DB00BF10BD00001444024044010020D0
:1007E00010B5002419E00F480068E04000F0010057
:1007F00088B10C48083000680121A140084309492C
:1008000008310860084850F8240020B1064951F822
:100810002400804703E0601CC4B2082CE3DB00BF67
:1008200010BD0000145402405C01002070B5044665
:100830000CB90325F4E3207C04280ED1607C062843
:1008400009DAFC480068227C012191400843F949FB
:10085000086014250AE0152508E0F6480068227CA7
:10086000012191400843F34908601425142D73D1E8
:10087000F149207C042805DA207C4FF0402202EB6D
:10088000003004E0207C001FEC4A02EB0030C0F88E
:1008900020150321207C042805DA207C4FF040221B
:1008A00002EB003004E0207C001FE44A02EB003041
:1008B000C0F82415A07828BB207C042805DA207C09
:1008C0004FF0402101EB003004E0207C001FDB49A9
:1008D00001EB0030D0F80014627C0120904081438D
:1008E000207C042805DA207C4FF0402202EB003007
:1008F00004E0207C001FD14A02EB0030C0F8001455
:10090000042529E0A078012825D1207C042805DAD7
:10091000207C4FF0402101EB003004E0207C001FE0
:10092000C64901EB0030D0F80014627C01209040F1
:100930000143207C042805DA207C4FF0402202EBA2
:10094000003004E0207C001FBC4A02EB0030C0F8FD
:100950000014042500E00525042D56D1E078012877
:1009600025D1207C042805DA207C4FF0402101EBC2
:10097000003004E0207C001FB04901EB0030D0F8CB
:10098000FC13627C012090400143207C042805DA9E
:10099000207C4FF0402202EB003004E0207C001F5E
:1009A000A64A02EB0030C0F8FC1306252DE0E078E3
:1009B00028BB207C042805DA207C4FF0402101EB85
:1009C000003004E0207C001F9C4901EB0030D0F88F
:1009D000FC13627C012090408143207C042805DACE
:1009E000207C4FF0402202EB003004E0207C001F0E
:1009F000924A02EB0030C0F8FC13062505E0E078CF
:100A0000022801D1062500E00725062D7FD1607858
:100A1000022825D1207C042805DA207C4FF04021D3
:100A200001EB003004E0207C001F844901EB003022
:100A3000D0F80015627C012090400143207C0428FE
:100A400005DA207C4FF0402202EB003004E0207CED
:100A5000001F7A4A02EB0030C0F80015082556E066
:100A60006078012825D1207C042805DA207C4FF00D
:100A7000402101EB003004E0207C001F6F4901EBB6
:100A80000030D0F80415627C012090400143207CA6
:100A9000042805DA207C4FF0402202EB003004E00D
:100AA000207C001F654A02EB0030C0F804150825C1
:100AB0002DE0607828BB207C042805DA207C4FF0EC
:100AC000402101EB003004E0207C001F5B4901EB7A
:100AD0000030D0F80815627C012090400143207C52
:100AE000042805DA207C4FF0402202EB003004E0BD
:100AF000207C001F514A02EB0030C0F80815082581
:100B000005E06078032801D1082500E00925082DBB
:100B10006FD1207802286DD1207C042805DA207C52
:100B20004FF0402101EB003004E0207C001F4349DE
:100B300001EB0030D0F82014627C0120904081430A
:100B4000207C042805DA207C4FF0402202EB0030A4
:100B500004E0207C001F394A02EB0030C0F820146A
:100B6000207C042805DA207C4FF0402101EB003086
:100B700004E0207C001F314901EB0030D0F828153B
:100B8000627C012090408143207C042805DA207C8F
:100B90004FF0402202EB003004E0207C001F274A87
:100BA00002EB0030C0F82815207C042805DA207CF0
:100BB0004FF0402101EB003004E0207C001F1F4972
:100BC00001EB0030D0F81C15627C012090400143FD
:100BD000207C042805DA207C4FF0402202EB003014
:100BE00004E0207C001F154A02EB0030C0F81C1501
:100BF0000A255BE12078012874D1207C042805DADD
:100C0000207C4FF0402101EB003004E0207C001FED
:100C10000A4901EB0030D0F82014627C012090409A
:100C20008143207C04280BDA207C4FF0402202EB29
:100C300000300AE008E60F404B434F4C00400240B2
:100C4000207C001FF54A02EB0030C0F82014207C05
:100C5000042805DA207C4FF0402101EB003004E04D
:100C6000207C001FED4901EB0030D0F81C15627CA0
:100C7000012090408143207C042805DA207C4FF03D
:100C8000402202EB003004E0207C001FE34A02EB2C
:100C90000030C0F81C15207C042805DA207C4FF0B9
:100CA000402101EB003004E0207C001FDB4901EB18
:100CB0000030D0F82815627C012090400143207C50
:100CC000042805DA207C4FF0402202EB003004E0DB
:100CD000207C001FD14A02EB0030C0F828150A25FD
:100CE000E4E0FFE72078E0BB207C042805DA207CE4
:100CF0004FF0402101EB003004E0207C001FC74989
:100D000001EB0030D0F82014627C01209040814338
:100D1000207C042805DA207C4FF0402202EB0030D2
:100D200004E0207C001FBD4A02EB0030C0F8201414
:100D3000207C042805DA207C4FF0402101EB0030B4
:100D400004E0207C001FB54901EB0030D0F82815E5
:100D5000627C012090408143207C042807DA207CBB
:100D600000E031E04FF0402202EB003004E0207C54
:100D7000001FAA4A02EB0030C0F82815207C042886
:100D800005DA207C4FF0402101EB003004E0207CAC
:100D9000001FA24901EB0030D0F81C15627C012035
:100DA00090408143207C042805DA207C4FF04022CB
:100DB00002EB003004E0207C001F984A02EB003078
:100DC000C0F81C150A2571E0207803286DD1207C1D
:100DD000042805DA207C4FF0402101EB003004E0CC
:100DE000207C001F8D4901EB0030D0F82014627C7C
:100DF000012090400143207C042805DA207C4FF03C
:100E0000402202EB003004E0207C001F834A02EB0A
:100E10000030C0F82014207C042805DA207C4FF034
:100E2000402101EB003004E0207C001F7B4901EBF6
:100E30000030D0F82815627C012090408143207C4E
:100E4000042805DA207C4FF0402202EB003004E059
:100E5000207C001F714A02EB0030C0F82815207C6E
:100E6000042805DA207C4FF0402101EB003004E03B
:100E7000207C001F694901EB0030D0F81C15627C12
:100E8000012090408143207C042805DA207C4FF02B
:100E9000402202EB003004E0207C001F5F4A02EB9E
:100EA0000030C0F81C150A2500E00B250A2D70D172
:100EB0002079E0BB207C042805DA207C4FF040211B
:100EC00001EB003004E0207C001F544901EB0030AE
:100ED000D0F81015627C012090400143207C04284A
:100EE00005DA207C4FF0402202EB003004E0207C49
:100EF000001F4A4A02EB0030C0F81015207C04287D
:100F000005DA207C4FF0402101EB003004E0207C2A
:100F1000001F424901EB0030D0F81415627C01201B
:100F200090408143207C042807DA207C00E031E0F7
:100F30004FF0402202EB003004E0207C001F374AD3
:100F400002EB0030C0F81415207C042805DA207C60
:100F50004FF0402101EB003004E0207C001F2F49BE
:100F600001EB0030D0F80C15627C012090408143E9
:100F7000207C042805DA207C4FF0402202EB003070
:100F800004E0207C001F254A02EB0030C0F80C155D
:100F90000C25EBE02079012871D1207C042805DAAA
:100FA000207C4FF0402101EB003004E0207C001F4A
:100FB0001A4901EB0030D0F81015627C01209040F6
:100FC0008143207C042805DA207C4FF0402202EB8C
:100FD000003004E0207C001F104A02EB0030C0F813
:100FE0001015207C042805DA207C4FF0402101EB0D
:100FF000003004E0207C001F084901EB0030D0F8ED
:101000001415627C012090400143207C042808DAFA
:10101000207C4FF0402202EB003007E0004002400D
:10102000EDE2207C001FFC4A02EB0030C0F81415F2
:10103000207C042805DA207C4FF0402101EB0030B1
:1010400004E0207C001FF44901EB0030D0F80C15BF
:10105000627C012090408143207C042805DA207CBA
:101060004FF0402202EB003004E0207C001FEA4AEF
:1010700002EB0030C0F80C150C2577E0FFE7207973
:1010800002286DD1207C042805DA207C4FF0402115
:1010900001EB003004E0207C001FDF4901EB003051
:1010A000D0F81015627C012090408143207C0428F8
:1010B00005DA207C4FF0402202EB003004E0207C77
:1010C000001FD54A02EB0030C0F81015207C042820
:1010D00005DA207C4FF0402101EB003004E0207C59
:1010E000001FCD4901EB0030D0F81415627C0120BF
:1010F00090408143207C042805DA207C4FF0402278
:1011000002EB003004E0207C001FC34A02EB0030F9
:10111000C0F81415207C042805DA207C4FF040210B
:1011200001EB003004E0207C001FBB4901EB0030E4
:10113000D0F80C15627C012090400143207C0428EB
:1011400005DA207C4FF0402202EB003004E0207CE6
:10115000001FB14A02EB0030C0F80C150C2505E069
:101160002079032801D10C2500E00D250C2D74D128
:101170006079002872D1204600F0A8FA0546162DA5
:10118000F5D1207C042805DA207C4FF0402101EBCA
:10119000003004E0207C001F9F4901EB0030D0F8B4
:1011A0001014627C012090408143207C042805DAE1
:1011B000207C4FF0402202EB003004E0207C001F36
:1011C000954A02EB0030C0F81014A07928BB207CAF
:1011D000042805DA207C4FF0402101EB003004E0C8
:1011E000207C001F8C4901EB0030D0F80414627C95
:1011F000012090400143207C042805DA207C4FF038
:10120000402202EB003004E0207C001F824A02EB07
:101210000030C0F804140E252BE0A079012827D156
:10122000207C042805DA207C4FF0402101EB0030BF
:1012300004E0207C001F784901EB0030D0F8041452
:10124000627C012090408143207C042807DA207CC6
:101250004FF0402202EB003006E0ABE0A4E1207C3E
:10126000001F6D4A02EB0030C0F804140E2500E0A8
:101270000F250E2D66D1E079002863D1207C04284B
:1012800005DA207C4FF0402101EB003004E0207CA7
:10129000001F614901EB0030D0F80814627C012086
:1012A00090408143207C042805DA207C4FF04022C6
:1012B00002EB003004E0207C001F574A02EB0030B4
:1012C000C0F80814207AE0BB207C042805DA207CD2
:1012D0004FF0402101EB003004E0207C001F4E491C
:1012E00001EB0030D0F80C14627C01209040814367
:1012F000207C042805DA207C4FF0402202EB0030ED
:1013000004E0207C001F444A02EB0030C0F80C14BB
:10131000207C042805DA207C4FF0402101EB0030CE
:1013200004E0207C001F3C4901EB0030D0F814148D
:10133000627C012090408143207C042808DA207CD4
:1013400001E038E0B4E04FF0402202EB003004E06E
:10135000207C001F304A02EB0030C0F81414207CBF
:10136000042805DA207C4FF0402101EB003004E036
:10137000207C001F284901EB0030D0F81014627C5B
:10138000012090400143207C042805DA207C4FF0A6
:10139000402202EB003004E0207C001F1E4A02EBDA
:1013A0000030C0F81014204600F030F90546102D2A
:1013B00000D10E2520E1207A012877D1207C042855
:1013C00005DA207C4FF0402101EB003004E0207C66
:1013D000001F114901EB0030D0F80C14627C012091
:1013E00090400143207C042805DA207C4FF0402205
:1013F00002EB003004E0207C001F074A02EB0030C3
:10140000C0F80C14207C042808DA207C4FF040211E
:1014100001EB003007E0000000400240207C001F8C
:10142000794901EB0030D0F81414627C012090401F
:101430008143207C042805DA207C4FF0402202EB17
:10144000003004E0207C001F6F4A02EB0030C0F83F
:101450001414207C042805DA207C4FF0402101EB95
:10146000003004E0207C001F674901EB0030D0F819
:101470001014627C012090400143207C042805DA8E
:10148000207C4FF0402202EB003004E0207C001F63
:101490005D4A02EB0030C0F81014204600F0B6F8A8
:1014A0000546102D00D10E25A6E0FFE70F25A3E08D
:1014B0000E2D77D1E079012874D1207C042805DA3B
:1014C000207C4FF0402101EB003004E0207C001F25
:1014D0004D4901EB0030D0F80814627C01209040A7
:1014E0000143207C042805DA207C4FF0402202EBE7
:1014F000003004E0207C001F434A02EB0030C0F8BB
:101500000814207C042805DA207C4FF0402101EBF0
:10151000003004E0207C001F3B4901EB0030D0F894
:101520001414627C012090408143207C042805DA59
:10153000207C4FF0402202EB003004E0207C001FB2
:10154000314A02EB0030C0F81414207C042805DA7C
:10155000207C4FF0402101EB003004E0207C001F94
:10156000294901EB0030D0F81014627C0120904032
:101570000143207C042805DA207C4FF0402202EB56
:10158000003004E0207C001F1F4A02EB0030C0F84E
:101590001014204600F03AF80546102D2CD10E25E7
:1015A0002AE0FFE70F2527E06079012824D1207C7D
:1015B000042805DA207C4FF0402101EB003004E0E4
:1015C000207C001F104901EB0030D0F81014627C21
:1015D000012090408143207C042805DA207C4FF0D4
:1015E000402202EB003004E0207C001F064A02EBA0
:1015F0000030C0F810140E250E2D01D1002500E09A
:101600000125284670BD00000040024070B5054627
:101610000DB9032431E0287C28B9002000F0F8FD42
:1016200062B6102429E0287C012804D100F0F0FDE6
:1016300062B6102421E0287C022804D100F0E8FDE5
:1016400062B6102419E0287C032804D100F0E0FDE4
:1016500062B6102411E0287C042804D100F0D8FDE3
:1016600062B6102409E0287C052805D11E2000F070
:10167000CFFD62B6102400E01124204670BD0000AA
:1016800030B502460023147C042C05DA147C4FF09C
:10169000402505EB043404E0147C241F0A4D05EBBF
:1016A0000434D4F8FC43557CEC4004F001031BB92E
:1016B00000240C70062006E0012B03D101240C70DD
:1016C000062000E0072030BD0040024010B5014672
:1016D00019B9CA680AB9032040E00A7C32B94B7CC8
:1016E0001F4CCA6844F82320162037E00A7C012AE0
:1016F00006D14B7C1B4CCA6844F8232016202DE0F1
:101700000A7C022A06D14B7C174CCA6844F8232075
:10171000162023E00A7C032A06D14B7C134CCA68AE
:1017200044F82320162019E00A7C042A0BD10A7CF5
:10173000062A06DD4B7C0E4CCA6844F8232016208E
:101740000CE015200AE00A7C052A06D14B7C094CE6
:10175000CA6844F82320162000E0172010BD0000BE
:10176000C4000020E4000020040100202401002027
:10177000440100205C01002010B5014609B9032096
:1017800024E00A7C042A05DA0A7C4FF0402303EBAC
:10179000023204E00A7C121F0D4B03EB0232D2F836
:1017A000FC234C7C0123A34053400A7C042A05DA25
:1017B0000A7C4FF0402404EB023204E00A7C121F42
:1017C000034C04EB0232C2F8FC33062010BD0000CB
:1017D0000040024030B50246012925D1137C042B7C
:1017E00005DA137C4FF0402404EB033304E0137C50
:1017F0001B1F224C04EB0333D3F8FC43557C01231D
:10180000AB401C43137C042B05DA137C4FF04025BE
:1018100005EB033304E0137C1B1F184D05EB03336A
:10182000C3F8FC43062027E029BB137C042B05DA10
:10183000137C4FF0402404EB033304E0137C1B1FA4
:101840000E4C04EB0333D3F8FC43557C0123AB402F
:101850009C43137C042B05DA137C4FF0402505EBE9
:10186000033304E0137C1B1F044D05EB0333C3F863
:10187000FC43062000E0072030BD0000004002408D
:1018800070B5044600250C2C2ADA082C03DA164819
:1018900000EB043004E0A4F10800144901EB00302F
:1018A000806920F00101082C03DA0F4800EB0430B6
:1018B00004E0A4F108000D4A02EB003081611CB97C
:1018C000132000F087FC0CE0062C03D15E2000F012
:1018D00081FC06E0072C04D1602000F07BFC00E0D6
:1018E0000125284670BD00000000034000C00440F0
:1018F00070B5044600250C2C2FDA1948005D01282C
:101900002CD1082C03DA174800EB043004E0A4F1D2
:101910000800154901EB0030806940F00101082CF6
:1019200003DA104800EB043004E0A4F108000E4A8A
:1019300002EB003081611CB9132000F07AFC0AE050
:10194000062C03D15E2000F074FC04E0072C02D1C9
:10195000602000F06EFC62B600E00125284670BDF4
:101960007C0100200000034000C0044030B5024666
:10197000002011780AB90420B9E00C2975DA5C4B13
:101980005B5C002B72D1062907DA5A4B1B680124D5
:101990008C402343574C236009E0564B58331B6857
:1019A0008C1F0125A5402B43524C58342360082935
:1019B00003DA514B03EB013304E0A1F108034F4C70
:1019C00004EB0333DB6823F00104082903DA4A4BF4
:1019D00003EB013304E0A1F10803484D05EB0333A9
:1019E000DC605378062B7DDA5378022B70DA93781B
:1019F0006BB90424082903DA3F4B03EB013304E0FD
:101A0000A1F108033D4D05EB03331C6011E0937811
:101A1000012B0DD10024082903DA374B03EB0133E6
:101A200004E0A1F10803354D05EB03331C6000E031
:101A3000032000285BD153786BB90124082903DA0D
:101A40002D4B03EB013304E0A1F108032B4D05EB13
:101A500003335C6011E05378012B0ED10224082976
:101A600005DA254B03EB013306E03FE03CE0A1F152
:101A70000803224D05EB03335C60D378012B21D1A1
:101A800053680BB906201DE0082903DA1A4B03EB53
:101A9000013304E0A1F10803184C04EB03339B6904
:101AA00023F00104082903DA134B03EB013304E0AC
:101AB000A1F10803114D05EB03339C61104C5368F1
:101AC00044F8213001230A4C635410E00AE0FFE798
:101AD0005378022B0BD05378032B08D05378042B68
:101AE00005D004E0022002E0052000E0012030BD26
:101AF0007C01002004E60F400000034000C00440C9
:101B0000880100202DE9F0412DED088B04460E469A
:101B1000154600276848006800F0B3FE41EC1A0B38
:101B200053EC1A2B9FED650B51EC100B00F024FDCC
:101B300041EC180B9FED630BB0EE409AF0EE609A0B
:101B40000C2C74DA6148005D012871D1032D70DA24
:101B50009DB9304600F095FE41EC1B0B9FED5C0BF0
:101B600053EC102B00F008FD41EC1A0B53EC182B32
:101B700000F002FD41EC190B28E0012D13D1304695
:101B800000F07FFE41EC1B0B9FED530B53EC102B31
:101B900000F0F2FC41EC1A0B53EC182B00F0ECFCBB
:101BA00041EC190B12E0304600F06BFE41EC1B0BD0
:101BB0009FED420B53EC102B00F0DEFC41EC1A0BB6
:101BC00053EC182B00F0D8FC41EC190B51EC190B1D
:101BD00000F02AFE0146082C03DA414800EB0430ED
:101BE00004E0A4F108003F4A02EB00308162082CB7
:101BF00003DA3B4800EB043004E0A4F10800394963
:101C000001EB0030C06840F00101082C03DA3448D1
:101C100000EB043004E0A4F10800324A02EB00308B
:101C2000C160082C06DA2E4800EB043007E03DE0E6
:101C30003AE037E0A4F108002A4901EB003080695E
:101C400000F0010068BB00BF082C03DA244800EB59
:101C5000043004E0A4F10800224901EB0030C0691F
:101C600000F001000028EFD0082C03DA1C4800EB3C
:101C7000043004E0A4F108001A4901EB0030406A86
:101C800040F00101082C03DA154800EB043004E0B1
:101C9000A4F10800134A02EB00304162204600F034
:101CA00023F804E0072702E0052700E00127384673
:101CB000BDEC088BBDE8F081C000002000000000F2
:101CC0000000F03F00000000000000007C01002048
:101CD0000000000080842E410000000000408F4082
:101CE0000000034000C0044010B5014600200C294C
:101CF0001ADA082903DA0D4A02EB013204E0A1F1F5
:101D000008020B4B03EB0232D26822F001030829D0
:101D100003DA064A02EB013204E0A1F10802044CA6
:101D200004EB0232D36000E0012010BD000003404C
:101D300000C0044070B50446002500262046FFF789
:101D400015FE064606B10125284670BD2DE9F0476F
:101D500080460C4615461E464FF00009002724B960
:101D60004046FFF78DFD074603E04046FFF7C0FD04
:101D7000074617B14FF0010908E0324629464046B0
:101D8000FFF7C0FE07460FB14FF001094846BDE816
:101D9000F087000070B586B004460CB9022516E045
:101DA00014220C4901A8FEF73BFBA0788DF8070030
:101DB00020788DF8140060788DF8150001A8FEF7E2
:101DC00035FD06460EB9002500E0012500BF284676
:101DD00006B070BD5C29000070B586B004460CB931
:101DE000022518E014220D4901A8FEF719FBA0787E
:101DF0008DF8070020788DF8140060788DF81500B4
:101E0000002101A8FFF7E6FC0646062E01D10025B9
:101E100000E0012500BF284606B070BD84290000FF
:101E200070B586B004460CB9022518E014220D499D
:101E300001A8FEF7F5FAA0788DF8070020788DF854
:101E4000140060788DF81500012101A8FFF7C2FC8D
:101E50000646062E01D1002500E0012500BF2846D8
:101E600006B070BD7029000010B50648FFF7B4FF3A
:101E70000448C01EFFF7B0FF0248801FFFF7D0FFE5
:101E800010BD00007600002010B50648FFF7A4FF43
:101E90000448801DFFF7A0FF0248C01CFFF7C0FFE9
:101EA00010BD00007000002010B50648FFF7B8FF15
:101EB0000448801FFFF7B4FF0248C01EFFF7B0FFC1
:101EC00010BD00007600002010B50648FFF784FF23
:101ED0000448C01CFFF780FF0248801DFFF7A0FFE9
:101EE00010BD000070000020F0B585B004460E461D
:101EF000002796B9142217496846FEF791FAA07890
:101F00008DF8040020788DF8100060788DF81100AD
:101F10006846FEF78BFC054614E014220D49143187
:101F20006846FEF77DFAA0788DF8040003962078C5
:101F30008DF8100060788DF811006846FEF776FC89
:101F4000054600BF0DB9002700E00127384605B05F
:101F5000F0BD0000AC29000070B586B004460D4607
:101F6000142216496846FEF75BFAA0788DF8040043
:101F700020788DF8100060788DF8110005A968466A
:101F8000FFF77EFBA07840B99DF81400012801D12D
:101F900028700FE0002028700CE0A078012808D1FC
:101FA0009DF8140010B90020287003E0012028706B
:101FB00000E002260426304606B070BDD429000099
:101FC00010B5002400BF0CE004EB4401084A02EB0A
:101FD000C101081DFEF72AFC012006490855601CB6
:101FE000C4B2022CF0DB00F06FFA002010BD00003C
:101FF00080000020B000002010B5002400BF1CE0CD
:102000001C48005D012816D11B480078012809D121
:1020100004EB4401194A02EBC101081D0021FFF73E
:10202000D9FB08E004EB4401144A02EBC101081D8E
:102030000121FFF7CFFB601CC4B2022CE0DB0E488D
:10204000007801280AD10E49087801220D49098833
:10205000FFF758FD00200849087009E00849087892
:10206000012209490988FFF74DFD01200249087046
:1020700010BD0000B0000020B30000208000002050
:10208000B8000020B6000020B400002070B504465F
:102090000D460C490878FFF72BFC04FB05F0642182
:1020A00090FBF1F00849088008460088201A07498B
:1020B000088004490878012204490988FFF722FDB5
:1020C000002070BDB8000020B4000020B600002041
:1020D0001B49096841F47001194A116019491A4AEB
:1020E00011671A4911661A4911661A4911670020C9
:1020F00000E0401CB0F57A7FFBD31749124A116605
:1021000016491167002000E0401CB0F57A7FFBD330
:1021100013490D4A116600BF0B49096D01F04001DA
:102120004029F9D10F49084A11664FF0C071116773
:10213000002000E0401C42F210718842FAD3704740
:1021400088ED00E01028800700E00F40D13A8E07AC
:10215000422D9E0100288001420D9E010008800151
:10216000420DDE014205DE0110B50648006840B1AF
:102170000449086880470448406A40F00100024969
:10218000486210BD880100200000034010B50648D9
:10219000806940B10449886980470448406A40F03A
:1021A00001000249486210BD880100200060034020
:1021B00010B50648C06940B10449C8698047044861
:1021C000406A40F001000249486210BD88010020C9
:1021D00000700340002817DB00F01F02012191402E
:1021E0000A4A430942F8231000BF00BF00BFBFF3F3
:1021F0004F8F00BF00BF00BF00BF00BF00BFBFF3D5
:102200006F8F00BF00BF00BF7047000080E100E09B
:1022100000280DDB00BF00BF00F01F02012191402C
:102220004209920002F1E022C2F8001100BF00BF93
:10223000704700280DDB00BF00BF00F01F02012126
:1022400091404209920002F1E022C2F8001100BF61
:1022500000BF704710B50D490D48FFF745FE00213E
:102260000B48C01CFFF740FE0A48FFF793FD0948E2
:10227000C01CFFF78FFD0748801DFFF78BFD064848
:10228000FFF758FD0548FEF789F910BD3D25000010
:1022900079000020700000200800002010000020BD
:1022A00010B55D48007802280BD15C480078012801
:1022B00004D1FFF709FE00205849087000F014F916
:1022C000A8E055480078002851D15548007868B9F1
:1022D00054480078012809D15349087050490870C2
:1022E00000205049087000F0A1F893E04D480078B4
:1022F00001280CD14C480078012808D102204A4915
:10230000087000204749087000F0C0F882E0454896
:10231000007801280CD144480078022808D1032015
:102320004149087000203F49087000F09FF871E0B3
:102330003C48007801280BD13B480078032807D19E
:102340000020394908703749087000F09FF861E0B3
:102350003448007801285DD133480078002859D1ED
:1023600001202D49087000202D49087052E02A48AC
:10237000007801284ED12A48007868B929480078A9
:10238000012809D1284908702549087000202549ED
:10239000087000F05BF83DE02248007801280CD17D
:1023A00021480078012808D102201F490870002028
:1023B0001C49087000F06AF82CE01A4800780128DF
:1023C0000CD119480078022808D10320164908705A
:1023D00000201449087000F049F81BE0114800780B
:1023E00001280BD110480078032807D100200E499E
:1023F00008700C49087000F049F80BE009480078B3
:10240000012807D10848007820B900200249087047
:102410000349087010BD00000400002003000020E4
:1024200002000020010000200000002010B5322032
:10243000FEF766F8FFF718FD034908780223032228
:102440000121FFF783FC10BD0800002010B51E20FD
:10245000FEF756F8FFF718FD0349087802231A46DD
:102460000121FFF773FC10BD0800002010B501200A
:10247000FEF7B4F8FFF718FD03490878022301229C
:102480001146FFF763FC10BD0800002010B50021C5
:102490000848FEF7BBF801210648FEF7B7F8FFF73A
:1024A00013FD0549087801234FF4FA721946FFF726
:1024B0004DFC10BD1000002008000020FFF7CAFEF0
:1024C00001E0FFF7EDFEFCE710B50548007828B9FC
:1024D0000448FFF74BFA01200149087010BD0000C5
:1024E000B2000020B800002008B501200090694625
:1024F0000E48FFF731FD9DF80000A8B90C49087897
:102500000123C8220021FFF721FCFFF7DDFC00209A
:102510000849087006490878022301221146FFF78E
:1025200015FC00200449087008BD00007C00002054
:1025300008000020010000200400002010B5FFF773
:10254000A5FF0120054908700020054908700549CC
:10255000087002200449087010BD0000030000202C
:102560000200002001000020040000200120014999
:1025700008707047010000202DE9C04130B4DFF839
:10258000A0C23CEA111418BF3CEA131400F0EC801E
:1025900081EA03051CEA111444EAD57418BF1CEA49
:1025A000131500F0C780A4EB05044FF0004545EA81
:1025B000C12145EAC32341EA505143EA525304F191
:1025C0007F74994204F500344FEAC0204FEAC222DA
:1025D00008BF904200F09C804FEA13650FF240164E
:1025E000765D4FEA134506FB05F7C7F1807706FBDA
:1025F00007F74FEAD737A7FB03687642C8F580385C
:10260000A7FB06CE38BFA8F1010807FB08E64FF08C
:10261000000EA6FB028CE6FB03CEDCF1000CCEF133
:10262000004E38BFAEF1010EA6FB0C584FF000076C
:102630004FF00005E6FB0E87A1FB08C6A0FB07CE06
:1026400016EB0E0645F10005E1FB076515F1E04EBE
:102650007EBFA4F580345FEA46066D4116F180071F
:1026600045F100054FEA17274FEA066647EA056776
:10267000A6F1DE46B6F1805F4FEA15251FD9384630
:1026800024F0010C05EBC471BCF1FE6F01EB0C11E1
:1026900002D8F0BCBDE8008124425CBF01F5801E79
:1026A0009EEAC47F02D4F0BCBDE80081244238D445
:1026B000F0BCA1F1C041BDE8004100F043B94FEAD0
:1026C000D22242EA43524FEAD323A7FB02864FEAC3
:1026D000D02040EA415007FB03661EEA0E0F4FEA86
:1026E000D12105FB026658BFA6EB0056B6EB00569B
:1026F0004FEA520E4EEAC37E18EB0E0E56EB530E07
:10270000BDD518EB02085E417F1C55F10005B6E708
:102710004FF480154FF000074FF000064FF000080F
:10272000ADE7F0BC4FF0000001F1C04101F0004105
:10273000BDE8008111EA0C1F0CEA131500D00CE073
:1027400013EA0C1F00F025804FF00000F0BC81EA76
:10275000030101F00041BDE80081F0BCBDE800418B
:1027600081EA030100F0EEB8F0BCBDE8004170B5AD
:1027700000F09AF8097EFC3E00F007B881EA0301F8
:102780004FF0000001F00041704781EA030100F0C2
:10279000D9B8F0BCBDE800414FF0000021497047B6
:1027A000FFFDFBF9F7F5F4F2F0EEEDEBE9E8E6E416
:1027B000E3E1E0DEDDDBDAD8D7D5D4D3D1D0CFCD9D
:1027C000CCCBCAC8C7C6C5C4C2C1C0BFBEBDBCBBD6
:1027D000BAB9B8B7B6B5B4B3B2B1B0AFAEADACABD1
:1027E000AAA9A8A8A7A6A5A4A3A3A2A1A09F9F9EAB
:1027F0009D9C9C9B9A99999897979695959493935D
:10280000929191908F8F8E8E8D8C8C8B8B8A8989F3
:102810008888878786858584848383828281818076
:102820000000FF070000F87F4FEA1153A3F5806313
:10283000D3F11E03A8BFD3F1200C08DB4FF00042F8
:1028400042EAC12252EA505232FA03F0704709427A
:102850000BD4102BC4BF0020704703F5787CBCF16B
:10286000FF3F05D04FF0FF3070474FF0000070473A
:1028700070B500F019F800BF49922480002070471D
:10288000F0E7B0FA80F310FA03F10AD0C3F11D03A8
:1028900003F580634FEA41504FEA035202EBD12126
:1028A00070474FF0000070470EF1020E2EF0030E3D
:1028B0005EF8046B364205D4012A43EB030515F597
:1028C000001F12D8012841EB010C1CF5001F0CD889
:1028D0000ED14FEAD17C15F5001F0CEB4C0C0CF11E
:1028E000020C08BF4CEBD37C04E04FF0080C01E075
:1028F0004FEAD37C0CEB4C0526FA05F606F00706EA
:10290000B6F1040C06D20EEB860CBDE870404CF01C
:10291000010C6047DFE80CF0090B02024FF00041A8
:102920004FF00000A1F5002170BD194610460128A6
:1029300051EB010418BFD4F5001484BF002001F04E
:10294000004170BD0808A0F500114FEA3101704741
:102950004FF04070E1EE100A7047000002030100E2
:10296000030102020200000000000000000000005D
:102970000203010003010202020000000000000047
:102980000000000002030100030102020200000037
:102990000000000000000000020301000301020229
:1029A0000200000000000000000000000200000221
:1029B0000001020202000000000000000000000010
:1029C0000200000200000100000000000000000002
:1029D00000000000020000020001020202000000EC
:1029E0000000000000000000082A00000000002095
:1029F000C4000000A8020000CC2A0000C40000208F
:102A000054030000C40200000000000002000000A7
:102A1000070000016D250000020001000001020214
:102A2000020000000000000004020000000000009E
:102A3000020001000001020202000000000000008C
:102A40000403000001000000020001000001020276
:102A5000020000000000000004040000020000006A
:102A6000020001000001020202000000000000005C
:102A70000405000003000000050100050200050335
:102A80000001060105040000000000000200010131
:102A90000001020202000000000000000107000027
:102AA000010000000200010100010202020000001A
:102AB0000000000005000000000000010000000010
:0C2AC00006000001F91F000080F0FA027F
:040000050000030DE7
:00000001FF
